:1000000012C017C016C015C014C013C012C011C052
:1000100010C00FC00EC00DC00CC00BC00AC009C07C
:1000200008C007C006C011241FBECFEDCDBF02D04F
:100030002BC0E6CF8CE381BB909A919A80E090E050
:100040008130910529F4939A929894989598F8CFD5
:10005000459B16C09298949A959A88EE93E0959A4B
:100060002FEF33EB44EC54E02150304040405040FF
:10007000D9F700C00000019791F781E090E0E0CF50
:0C008000929A94989598DACFF894FFCFEC
:00000001FF
